:020000040000FA
:100000007804002005010000090100000B01000038
:100010000D0100000F0100001101000000000000B0
:1000200000000000000000000000000013010000BC
:100030001501000000000000170100001901000078
:100040001B0100001B0100001B0100001B01000040
:1000500079010000ED01000093020000850300001B
:100060001B010000371200001B0100001B010000F3
:10007000D9070000770400001B0100001B010000ED
:100080001B0100001B0100001B0100001B01000000
:100090001B0100001B0100001B0100001B010000F0
:1000A0001B0100001B0100001B0100001B010000E0
:1000B0001B0100001B0100001B0100001B010000D0
:1000C0001B0100001B0100001B0100001B010000C0
:1000D0001B0100001B0100001B0100001B010000B0
:1000E0001B0100001B0100001B0100001B010000A0
:1000F000DFF80CD001F0F0FA0048004721010000C1
:100100007804002005480047FEE7FEE7FEE7FEE72B
:10011000FEE7FEE7FEE7FEE7FEE7FEE7F100000090
:1001200001F066F900F0ECF942200F490880012047
:100130000E4908600846006800F04EFA01200C499C
:10014000088001F0B4F8012000F069FE00F016FA12
:1001500008E000200449088006480068012801D111
:1001600000F024FBF5E70000882500401000002087
:10017000280000200800002010B50020F449088065
:10018000F44800684FF0E021C1F800014FF0000092
:10019000F1490860F148006848B90120EF4908605A
:1001A000002000F019FA0120ED49086007E0002066
:1001B000EA490860EA4908600E2000F00DFAE948B3
:1001C000008840F4E040E7490880E64808300088AD
:1001D00040F01200E34908310880DE48006840F42E
:1001E00000504FF0E021C1F8000110BD10B5002013
:1001F000D7490880D74800684FF0E021C1F80001D6
:100200004FF0FF30D84908804FF00100D249086014
:10021000D648006808B9012000E00020CF490968ED
:1002200009B9012100E00021084206D00120CF4990
:1002300008600B2000F0D0F914E0CC4800680128D9
:1002400000D100E00020C549096809B9012100E09A
:100250000021084206D00020C4490860C448006854
:1002600000F0BAF9BF48008840F4E040BD4908807A
:10027000BC480830008840F01200BA4908310880B4
:10028000B448006840F400504FF0E021C1F800018C
:1002900010BD10B50020AE490880AE4800684FF090
:1002A000E021C1F800014FF00200AB490860AF48FF
:1002B000006808B9012000E00020A849096809B9D0
:1002C000012100E00021084245D0A94800680A2821
:1002D00003D10120A649086004E0A5480068401C3D
:1002E000A3490860A248006800F076F9A0480068B9
:1002F0000B282FD2DFE800F02E060A0E12161A1E67
:1003000022262A0001209849088023E002209649ED
:1003100008801FE00320944908801BE004209249D4
:10032000088017E005209049088013E006208E49D8
:1003300008800FE007208C4908800BE008208A49DC
:10034000088007E009208849088003E00A208649E0
:10035000088000BF00BF8348008840F4E040814926
:10036000088080480830008840F012007D4908313C
:1003700008807848006840F400504FF0E021C1F850
:10038000000110BD10B50020714908807148006857
:100390004FF0E021C1F800014FF003006E49086002
:1003A0007248006808B9012000E000206B49096824
:1003B00009B9012100E0002108425BD06C480068C7
:1003C000012803D10A206A49086004E068480068EF
:1003D000401E674908606648006800F0FDF8644800
:1003E00000680B282FD2DFE800F02E060A0E121646
:1003F0001A1E22262A0001205B49088023E00220E1
:10040000594908801FE00320574908801BE0042059
:100410005549088017E005205349088013E006205D
:10042000514908800FE007204F4908800BE0082061
:100430004D49088007E009204B49088003E00A2065
:100440004949088000BF00BF4648008840F4E040AA
:100450004449088043480830008840F01200414970
:10046000083108803B48006840F400504FF0E0211C
:10047000C1F8000110BD3B480830008839490831F7
:10048000088048143B4908603348006830B10128AF
:1004900010D002281AD0032830D123E00820364992
:1004A00008802C48006840F010004FF0E021C1F8AF
:1004B000000123E01020304908802648006840F001
:1004C00020004FF0E021C1F8000117E020202A4968
:1004D00008802048006840F040004FF0E021C1F85B
:1004E00000010BE04020244908801A48006840F0D1
:1004F00080004FF0E021C1F8000100BF00BF70474D
:100500001D481038008840F410401B4910390880FD
:10051000081D008840F00900091D08800846008871
:1005200040F0900008800846008840F41060088081
:100530001148008840F078000F490880054800689D
:1005400040F0F0004FF0E021C1F8000170470000DA
:100550008825004000E100E00C00002000000020A1
:1005600008000020000400402800002004000020B3
:100570001000002080E100E03024004010B542F27D
:100580000170134908800320087100BF1048007AE9
:1005900008B9012000E0002010F0010FF6D100247E
:1005A00000E0641C142CFCDB0948808900B2094976
:1005B00008800846B0F9000042F21071884203DC5E
:1005C0000C2000F009F802E00D2000F005F810BD45
:1005D000000005401C0000200F2810D2DFE800F0CA
:1005E00010182838485868788898A8B8C8D10800E2
:1005F0006849097841F00201674A82F8DC10C7E0D7
:100600006649097841F00201634A82F8E010BFE0D0
:10061000FF21614A11772421614A11704FF00701CF
:100620005D4A82F8DC104FF001015C4A1170AFE0C6
:10063000FF21594A11772421594A11704FF00701BF
:10064000554A82F8DC104FF04001564A11709FE085
:10065000FF21514A11772421514A11704FF00701AF
:100660004D4A82F8DC104FF020014E4A11708FE0A5
:10067000FF21494A11772421494A11704FF007019F
:10068000454A82F8DC104FF01001464A11707FE0B5
:10069000FF21414A11772421414A11704FF007018F
:1006A0003D4A82F8DC104FF008013E4A11706FE0BD
:1006B000FF21394A11772421394A11704FF007017F
:1006C000354A82F8DC104FF00401364A11705FE0C1
:1006D000FF21314A11772421314A11704FF007016F
:1006E0002D4A82F8DC104FF002012E4A11704FE0C3
:1006F000FF21294A11772421294A11704FF007015F
:10070000254A82F8DC104FF00101264A11703FE0C3
:10071000FF21214A11772421214A11704FF007014E
:100720001D4A82F8DC104FF020011F4A11702FE0A3
:10073000FF21194A11772421194A11704FF007013E
:10074000154A82F8DC104FF00401174A11701FE0BF
:10075000FF21114A11772421114A11704FF007012E
:100760000D4A82F8DC104FF004010C4A11700FE0C2
:1007700008210B4A11704FF01001074A82F8B0109F
:1007800006E00821064A1170034A82F8B01000BF43
:1007900000BF7047DC60004000600040E060004047
:1007A000AC60004020600040B06000404FF08040EE
:1007B000008840F006004FF080410880084600891C
:1007C00040F0100008812D48006840F480504FF040
:1007D000E021C1F80001704710B54FF4805028495E
:1007E00008604FF41C50274908804FF00100087141
:1007F00000BF2448007A08B9012000E0002010F072
:10080000010FF6D11F48808900B21F4908801F4898
:10081000006860B91D49097849001031C8B21C4907
:1008200000F09AFD19480068401C184908601749F3
:10083000097849001031C8B2134900F08DFD134802
:100840000068401C114908600846006877280ED1EE
:100850004020104908704FF0EE0000F087FD402066
:100860000C49DC3981F8E0000020084908604FF0AD
:10087000804000894FF08041088110BD00E100E018
:1008800080E100E00000054020000020240000205E
:1008900028000020DC6000400146002009B1012250
:1008A0000A607047024600204FF040231A7200BFD2
:1008B0004FF040231B8813F4E06FF9D021B14FF0C3
:1008C00040231B790B7002E04FF040231B797047E7
:1008D00038B505460024092000F070FD0820FE49C7
:1008E000087024B90021FF20FFF7DCFF044624B97B
:1008F0006946FF20FFF7D6FF04460820F749087035
:100900004FF0090000F04EFD2CB925B19DF8000014
:1009100000F01F002870204638BD38B50446002579
:1009200000BF6846FFF7D4FF05461DB99DF80000DB
:10093000A042F6D1284638BD70B504460D460026C3
:10094000092000F03BFD0820E349087005E014F899
:10095000010B0021FFF7A6FF06462800A5F10101C3
:10096000CDB201D0002EF2D00820DC4908704FF043
:10097000090000F017FD304670BD38B504460094FC
:1009800001216846FFF7D8FF38BD38B500241CB9EF
:100990006846FFF79DFF04462FE09DF8000020B158
:1009A00013280ED0142817D100E020E01CB9B12084
:1009B000FFF7E3FF04461CB91220FFF7AEFF044621
:1009C00015E01CB9B120FFF7D8FF04461CB912206E
:1009D000FFF7A3FF04460AE01CB9B120FFF7CDFFE3
:1009E00004461CB91220FFF798FF044600BF00BF61
:1009F0001CB96846FFF76CFF04469DF800001228FA
:100A000001D0002CC9D0204638BD38B5002400BF25
:100A1000092000F0D3FC0820AF49087024B9002158
:100A2000FF20FFF73FFF044624B96946FF20FFF788
:100A300039FF04460820A94908704FF0090000F06A
:100A4000B1FC2CB99DF8000010F0200F00D001E09F
:100A5000002CDDD000BF204638BD38B50546002447
:100A6000009514B9FFF7D1FF044624B90121684667
:100A7000FFF762FF0446204638BD2DE9F0410546E8
:100A80000F4616460024092000F098FC08209249E1
:100A900008703CB9C5F3022141F018000021FFF7AE
:100AA00001FF044624B9E8B20021FFF7FBFE04462B
:100AB00005E016F8010B0021FFF7F4FE04463800AC
:100AC000A7F1010701D0002CF3D00820834908705A
:100AD0004FF0090000F066FC2046BDE8F08138B513
:100AE00000241CB96846FFF7F3FE04462FE09DF88A
:100AF000000020B113280ED0142817D100E020E008
:100B00001CB9B120FFF739FF04461CB91220FFF7CA
:100B100004FF044615E01CB9B120FFF72EFF044680
:100B20001CB91220FFF7F9FE04460AE01CB9B020F8
:100B3000FFF723FF04461CB91120FFF7EEFE044621
:100B400000BF00BF1CB96846FFF7C2FE04469DF80F
:100B50000000112801D0002CC9D0204638BD10B5A6
:100B6000002414B9FFF7BBFF04462CB95C4A4021AE
:100B70008800FFF782FF04461CB9BB20FFF76DFF1A
:100B8000044614B9FFF701FF0446204610BD38B5EE
:100B900000245448007800B30020009034B96A461D
:100BA000012140F2FA30FFF768FF0446042000906C
:100BB00034B96A46012140F22E30FFF75EFF044649
:100BC000002000902CB96A4601210D20FFF755FF47
:100BD000044600204349087000BF4348007830B104
:100BE000FFF7BDFF044614B900203F4908702046B6
:100BF00038BD70B50446002501203B49087024B17A
:100C0000012C0CD0022C1DD113E04022374934486E
:100C100000F048FC4FF47A703549086014E0402237
:100C200034492F4800F03EFC4FF41640304908602C
:100C30000AE0402230492A4800F034FC2F482C4971
:100C4000086001E0022500BF00BF284670BD10B556
:100C500000241CB9A220FFF700FF044614B9FFF7D7
:100C6000D4FE0446204610BD0020002108221A4B65
:100C70001A7000E0491C224A126812B9B1F57A7F55
:100C8000F8DBB1F57A7F00D101200822134B1A70EE
:100C9000704770B50025C820FFF76FFE05464FF47A
:100CA000805400BF2000A4F10104FBD1284670BD90
:100CB00070B505460024092000F080FB4FF4C250B7
:100CC000104908804FF008000F4981F864004FF088
:100CD00000000E4908601BE0806000407C6000401E
:100CE000380000202D0000202C000020B817000044
:100CF000300000203817000078170000E09304004F
:100D0000800E0C426060004000600040100D0C42FC
:100D10004FF001004FF04021888143F243000882E8
:100D20004FF0430008824FF00800FE4908704FF072
:100D30000B00FD4908804FF48070FC4908804FF09B
:100D400009004FF0010101FA00F1F94A4FEA50138E
:100D500042F8231000BF4FF00001002807DA4A07CD
:100D6000160EF44A00F00F031B1FD65403E04A0787
:100D7000130EF14A135400BF092000F013FB14B9FD
:100D8000FFF787FF044614B9FFF76EFF044614B956
:100D9000FFF75DFF044614B9FFF7A1FE04461CB936
:100DA0002846FFF726FF044614B9FFF7F0FE044675
:100DB00014B9FFF7EAFD0446204670BD10B50024C3
:100DC000FFF7E3FD0446204610BD2DE9F0478146BC
:100DD0004FF0000A0120D9490870484600F0E6FBB0
:100DE0000746D74AD74B00F06FFB054600F0EBFBF8
:100DF0000446D5494C72200A8872200CC872D34828
:100E0000814504D3072048761620087604E00320A5
:100E1000CD494876082008765046BDE8F08730B5C1
:100E200002460020C84C637D12B1012A04D101E0C2
:100E3000002103E0082101E0022000BF00BF70B9DB
:100E4000C14C647D24F0380444EA0103BE4C647D47
:100E50009C4204D00124B94D2C70BB4C637530BD4D
:100E600010B502460020B84B197F12B1012A06D1F5
:100E700002E021F0400104E041F0400101E00220E5
:100E800000BF00BF40B9B04B1B7F8B4204D0012391
:100E9000AA4C2370AC4B197710BD10B50246002048
:100EA000A94B197F12B1012A06D102E021F00801F5
:100EB00004E041F0080101E0022000BF00BF40B99A
:100EC000A14B1B7F8B4204D001239C4C23709E4B73
:100ED000197710BD70B505460E46002400209C49C8
:100EE0000870F02D00DD042414B9FFF74EFD044610
:100EF0002CB9324629461020FFF7BFFD04464CB9F5
:100F0000914880F8275090F8260040F040008E4924
:100F100081F8260014B9FFF73AFE044614B9FFF72A
:100F200034FD04461CB9B520FFF797FD0446204662
:100F300070BD8748007870472DE9F04105460A46A4
:100F40000020002115B1012D05D102E041F0800102
:100F500003E000BF01E0022000BF00BF002840D135
:100F6000102A3BD2DFE802F008090A0B0C0D0E0F25
:100F7000101112131415161700BF00BF00BF00BFD9
:100F800000BF00BF00BF00BF00BF00BF00BF00BF69
:100F900000BF00BF00BF41EAC203D9B2032303EB85
:100FA000820C6C4B1B684FF06408B3FBF8F840F6FA
:100FB000C4130CFB03F3B3FBF8F70124260207E08C
:100FC000641C4FF4007343FA04F6072C00D301E0CD
:100FD000BE42F5D800BFE3B2194301E0022000BFD2
:100FE00000BF50B9584B1B7D8B4206D00123DFF860
:100FF0004C8188F80030544B1975BDE8F08138B544
:1010000000240320009014B9FFF7C1FD044601201D
:101010005149087014B9FFF7B8FC04462CB96A4668
:1010200001210D20FFF729FD04461CB9B520FFF76B
:1010300014FD0446204638BD38B500240220009037
:1010400014B9FFF7A4FD044614B9FFF79EFC04464B
:101050000120414908702CB96A4601210D20FFF793
:101060000CFD04461CB9B520FFF7F7FC04462046EA
:1010700038BD70B505460024002038490870F02DB1
:1010800000DD04244CB9304880F8275090F8260041
:1010900040F040002C4981F8260014B9FFF777FD95
:1010A000044614B9FFF771FC04461CB9B220FFF7DF
:1010B000D4FC0446204670BD2848007870472DE9CE
:1010C000F04105460E4617460024092000F076F947
:1010D0000820234908703CB9C5F3022141F03800CB
:1010E0000021FFF7DFFB044624B9E8B20021FFF737
:1010F000D9FB044624B90021FF20FFF7D3FB0446A7
:1011000005E039467F1CFF20FFF7CCFB044630008A
:10111000A6F1010601D0002CF3D008200149087087
:1011200020E000007C600040282400403024004083
:1011300080E200E018ED00E000E400E02C00002078
:10114000AFC0EE131DA6643F38000020801361334A
:1011500034000020300000202D0000203500002049
:10116000806000404FF0090000F01CF92046BDE807
:10117000F0812DE9F04706460C4691461D460027B2
:10118000FFF79AFF48B3924890F8260010F0400FFE
:101190001FD01CB18E4890F8270020708C4890F822
:1011A0002780B04500DDB0462FB94A4641461020A1
:1011B000FFF785FF07467DB137B92A46012140F286
:1011C0001230FFF77CFF074628786B3840B2287052
:1011D00002E00CB10020207002E00CB10020207071
:1011E0003846BDE8F08738B5002440F2E17079490F
:1011F000088014B9FFF7CBFC04460120764908703B
:10120000A020009034B96A46012140F2FA30FFF77D
:1012100034FC04460020009034B96A46012140F2B3
:101220002E30FFF72AFC04461CB9B220FFF715FC4C
:101230000446204638BD1CB5002434B901AA01215A
:1012400040F23630FFF73BFF044634B96A460121CD
:1012500040F23730FFF733FF04469DF8040010F0EA
:10126000100F02D001205D4908709DF8040010F0B5
:10127000040F02D001205A49087034B901AA012193
:1012800040F23630FFF7F9FB044634B96A460121D3
:1012900040F23730FFF7F1FB04464FF480705149BC
:1012A00008801CBD10B5FFF770FB044610BD10B5DB
:1012B00000241CB90220FFF7FBFC04461CB94A4875
:1012C000FFF783FD044624B90F210020FFF734FE09
:1012D0000446FFF7E7FF10BD38B500241CB9684687
:1012E000FFF7F6FA04462FE09DF8000020B113281E
:1012F0000ED0142817D100E020E01CB9B120FFF770
:101300003CFB04461CB91220FFF707FB044615E01E
:101310001CB9B120FFF731FB04461CB91220FFF7BE
:10132000FCFA04460AE01CB9BA20FFF726FB044683
:101330001CB90620FFF7F1FA044600BF00BF1CB934
:101340006846FFF7C5FA04469DF80000062801D05C
:10135000002CC9D0204638BD70B505460C46224643
:1013600002212846FFF789FB064670BD70B5054689
:1013700000244CB9164880F8275090F8260040F019
:101380004000134981F8260014B9FFF700FC044619
:1013900014B9FFF7FAFA04461CB9B520FFF75DFB54
:1013A000044670BD00F01F020121914042094FF038
:1013B000E02303EB8202C2F80011704700F01F0225
:1013C00001219140094A430942F823107047000067
:1013D00038000020248800402D0000203400002028
:1013E0003500002030240040400ECF1980E100E09D
:1013F00027480088264908802648008840F4AA60CB
:10140000A1F890000846B0F8C00040F01500A1F81F
:10141000C0000846007940F0FF000871084690F8C7
:10142000940040F03C0081F89400084690F8C40015
:1014300040F00700184908704FF0FF001449087782
:101440004FF03C00154908704FF00700104981F833
:10145000DC000846008808800846008E088608469A
:10146000008E08860846008E08860846B0F8C00040
:1014700040F48050A1F8C000084690F8C40040F045
:101480004000054908704FF040000549087070475A
:101490000060004090600040C4600040AC600040CC
:1014A000E060004040EA01039B0703D009E008C95F
:1014B000121F08C0042AFAD203E011F8013B00F819
:1014C000013B521EF9D270472DE9FE4F81EA030419
:1014D00004F0004421F0004100944FF0000B23F091
:1014E000004350EA010402D052EA030404D1002070
:1014F000014603B0BDE8F08FC3F30A54C1F30A55A7
:101500002C44A4F2F3340194A0FB0254C1F3130160
:1015100041F48011C3F3130343F4801301FB02442D
:1015200000FB034E840A970A44EA815447EA835732
:10153000A4FB076802958D0A05FB07854FEA932CEB
:1015400004FB0C542705029D4FEA065847EA16375C
:10155000B5EB08056EEB070C870E920E47EA811774
:1015600042EA8312A7FB0201B6EB0B0164EB000415
:101570002B0D43EA0C335E1844EB1C50DA465146FF
:10158000E7FB0201C5F313044FEA0B3343EA14539C
:101590004FEA0432019C43EA0603A4F10C040294CE
:1015A000009CCDE900B400F044F8A2E70EB540F28B
:1015B000334102910021CDE900110A460B4600F0AB
:1015C00038F803B000BDC1F30A5210B5C1F31301DE
:1015D00040F2FF3341F480119A4201DA002010BD3D
:1015E00040F233439A42A2F2334203DC524200F00B
:1015F00003F810BD904010BD202A04DB203A21FAE8
:1016000002F00021704721FA02F3D040C2F120021B
:10161000914008431946704710B5002B08DA401C6A
:1016200041F1000192185B411A4301D120F0010001
:1016300010BD2DE9F04D92469B4611B1B1FA81F2F1
:1016400002E0B0FA80F22032904600F057F80446EB
:101650000F4640EA0A0041EA0B0153465A46084346
:1016600003D120463946BDE8F08D114653EA01000A
:1016700015D0C8F140025046FFF7BEFF05460E46A2
:1016800050465946424600F039F8084301D001203F
:1016900000E00020054346EAE0762C4337430A98F1
:1016A0004FEA4453A0EB08004FEAD4240A304FF02D
:1016B000000244EA47544FEAD72502D500200146EC
:1016C000D1E7010510196941DDE9084500196941B3
:1016D000BDE8F04DA0E70000064C074D06E0E068CD
:1016E00040F0010394E8070098471034AC42F6D369
:1016F000FEF702FDF817000018180000202A04DB8E
:10170000203A00FA02F1002070479140C2F1200314
:1017100020FA03F319439040704702E008C8121FF3
:1017200008C1002AFAD170477047002001E001C1CA
:10173000121F002AFBD1704714000000FFFF053381
:10174000313BB1238001C0200E0058C3FD000B3790
:101750001607400C000C00001000C336101024F0D7
:101760002A002F195E465F7800000000000000008C
:10177000000000000000000014000000FFFF05331F
:10178000313BB123B82BEE16720A58C3FDC00B379C
:101790001607400A000C00001000C336101024F099
:1017A0002A002F195E465F7800000000000000004C
:1017B000000000000000000014000000FFFF0533DF
:1017C000313BB1230A00644101005AC3FD000B37CD
:1017D0001607400C000C00001000C336101024F057
:1017E0002A002F195E465F7800000000000000000C
:1017F0000000000000000000181800000000002099
:10180000380000001A1700005018000038000020AF
:10181000400400002A170000000000000000000043
:1018200000000000000000000000000000000000B8
:1018300000000000000000000000000000000000A8
:101840000000000000000000009600000000000002
:04000005000000F106
:00000001FF
