:1000000010040020C91D0000D51D0000D51D0000F2
:10001000D51D0000D51D0000D51D0000000000000A
:10002000000000000000000000000000D51D0000DE
:10003000D51D000000000000D51D0000D51D0000EA
:10004000D51D0000D51D0000D51D0000D51D0000E8
:10005000D51D0000D51D0000D51D0000D51D0000D8
:10006000D51D0000D51D0000D51D0000D51D0000C8
:10007000D51D0000971A0000D51D0000D51D0000F9
:10008000D51D0000D51D0000D51D0000D51D0000A8
:10009000D51D0000D51D0000D51D0000D51D000098
:1000A000D51D0000D51D0000D51D0000D51D000088
:1000B000D51D0000D51D0000D51D0000D51D000078
:1000C000D51D0000D51D0000D51D0000D51D000068
:1000D000D51D0000D51D0000D51D0000D51D000058
:1000E000D51D0000D51D0000D51D0000D51D000048
:1000F0002DE9F04FA1B017461C4601AD6860A9601C
:100100000020E86211AE4FF0FF396FF0004802E0C6
:10011000E86A401CE862387818B9E86A21B0BDE89E
:10012000F08F252807D100206861A861E861286266
:100130006862A8620BE017F8011BA8686A6890471C
:10014000A8600028E4D14846E8E740F0010017F82D
:10015000011F2029F9D023290DD02B2904D02D29C6
:1001600006D030290AD00CE040F0020080B2EEE761
:1001700040F00400FAE740F00800F7E740F0100014
:10018000F4E72A290DD12268111D216011686963E5
:10019000002904D54942696340F0040080B27F1C05
:1001A00012E00021696309E0696B414505D001EB6C
:1001B000810302EB4301303969637F1C3A78A2F175
:1001C0003001C9B20A29EFD339782E2918BFC5F8F2
:1001D00030901DD117F8011F2A2906D12268111D60
:1001E0002160116829637F1C12E00021296309E066
:1001F000296B414505D001EB810302EB4301303906
:1002000029637F1C3A78A2F13001C9B20A29EFD3E1
:10021000288739780FF6DC3000F010FE08B117F8A7
:10022000010B8DF83E009DF83E00682804D1387817
:1002300068280AD1622005E06C2806D138786C283D
:1002400003D171208DF83E007F1C11A828613A78F7
:100250001046253825D01C3877D0001F022874D9C5
:10026000133800F09E8009386FD0801E00F0328174
:10027000401E00F0DB80401E022866D9001F00F0FF
:10028000D580401F36D0401E00F08B80401E23D00A
:10029000C01E0CD0801E00F08480C01E00F0818043
:1002A00020E16869411C69612521815524E12168AB
:1002B000081D20600868E8602A6B002A02D500F05B
:1002C000D9FD07E0002100F0F1FD00281ABFE96820
:1002D000401A286BA8610FE12168081D206008689A
:1002E0000021CDE9000111A8E860782100A800F004
:1002F00093F901E19DF83E0062281FD068280DD0D7
:100300006A2812D06C2802D071280ED07428216877
:10031000081D20600868E96A0160EDE0E86A22686B
:10032000111D216011680880E6E0E86AC1172368A2
:100330001A1D22601A68C2E90001DDE0E86A22683D
:10034000111D216011680870D6E02068C01D20F0E2
:1003500007002060034603F108002060D3E9000194
:10036000CDE90001002904D56869411C69612D218E
:100370000DE0288F810704D56869411C69612B2134
:1003800005E0C00704D56869411C696120218155D9
:10039000686911A94018E860114600A800F0CFF97B
:1003A000AAE09DF83E306C2B0FD0712B0BD120684A
:1003B000C01D20F00700206084460CF1080020607A
:1003C000DCE9000106E06A2BF1D02168081D2060FD
:1003D00008680021CDE90001682B04BFDDE90001B8
:1003E00080B20BD0622B04BFDDE90001C0B205D0A2
:1003F000742B01D07A2B04D1DDE900010021CDE975
:10040000000195F8380000075ED5DDE9000109B963
:10041000002859D042F02000782855D16869302151
:100420008155401C411C696182554DE09DF83E009C
:1004300062280CD0682810D06A281AD06C2824D0E2
:10044000712816D0742820D07A280CD01DE021689D
:10045000081D206091F900001BE02168081D206044
:10046000B1F9000015E02168081D2060086800212E
:1004700010E02068C01D20F007002060034603F153
:1004800008002060D3E9000104E02168081D206015
:100490000868C117CDE90001DDE90001002904DA8F
:1004A0006869411C69612D210DE0288F810704D501
:1004B0006869411C69612B2105E0C00704D56869A2
:1004C000411C696120218155686911A94018E860C3
:1004D00011460BE76869411C69612268111D2160A2
:1004E0001168E2E66869411C6961252181551AB1EC
:1004F0006869411C696182557F1C686B6969401A93
:10050000296A401AA969401A696A401AE969401AB9
:10051000A96AA0EB010A95F83800400711D4202001
:100520008DF84000BAF1010F0BDBD346012210A970
:1005300000A800F045FC00287FF405AEBBF1010BDC
:10054000F4D16A6911A900A800F03AFC00287FF4F0
:10055000FAAD30208DF84000D5F820B0BBF1010F86
:100560000ADB012210A900A800F02AFC00287FF471
:10057000EAADBBF1010BF4D1AA69E96800A800F06B
:100580001FFC00287FF4DFAD30208DF84000D5F847
:1005900024B0BBF1010F0ADB012210A900A800F072
:1005A0000FFC00287FF4CFADBBF1010BF4D1EA6959
:1005B000A869E968411800A800F002FC00287FF44F
:1005C000C2AD30208DF84000D5F828B0BBF1010F46
:1005D0000ADB012210A900A800F0F2FB00287FF43A
:1005E000B2ADBBF1010BF4D195F8380040077FF5AF
:1005F00092AD20208DF84000BAF1010FFFF68BADCF
:10060000012210A900A800F0DBFB00287FF49BADBD
:10061000BAF1010AF4D17EE52DE9FA4B86B0054620
:100620006F696F2908BF082605D041F0200078289F
:1006300014BF0A2610263C24D5E9000181468B46CA
:100640009DF81820642A01D0692A05D1002903DA0F
:10065000D9F100096BEB4B0BBBF1000F0FD1B9F1D6
:10066000000F0CD1686B50B9082E44D195F83C00AE
:10067000000740D53B24302087F83B003BE0A4F145
:1006800001084446F017CDE9046048465946DDE9C3
:10069000042300F041FCCDE90201CDE9009BDDE936
:1006A0000223DDE90401A0FB029BDDE90001A0EBD0
:1006B00009003030C0B23A2803D39DF818105139E0
:1006C000081808F80700DDE9029BBBF1000F02D112
:1006D000B9F1000F03D02869E1198842CFD3082E61
:1006E00009D195F83C00000705D5E05D302802D01F
:1006F000641E3020E055C4F13C00E861E119296135
:10070000696B884207DA081A6862A88F4FF6EF71A2
:100710000840A88710E000290ED595F83C1001F09C
:100720001401102908D1A96BAA69891A6A6A891A61
:100730000C1A012CA8BF6C6208B0BDE8F08B2DE943
:10074000F24F8EB0054604AFD5E90001CDE90201B4
:100750009DF8380040F020008DF8000061280BD093
:10076000686B002848BF062005D405D19DF800001D
:10077000672801D1012068636968C1F30A5040F21B
:10078000FF7398421DD1080310D1286870B9032067
:10079000E8619DF838006138C0B21A2838D30FF2EA
:1007A00068610322286900F045FCC6E10320E86186
:1007B0009DF838006138C0B21A2826D30FF2406184
:1007C000EFE7010017D1284600F06CFC012812DB8E
:1007D000002400209DF80010612920D129693022D1
:1007E00001F8012B4A1C2A619DF83820612A0CBFB0
:1007F000782258220FE040F2FE316A6861F31E52FF
:100800006A60441A4FF0FF30E4E70FF2F051C8E796
:100810000FF2F051C5E70A70A969891CA96110B9E6
:100820000026B0467FE19DF80000612840F09780E7
:10083000686B00284CBF2126461C36B2771CD5E9D0
:1008400000ABDDE902010022002300F04DFC3ABFBD
:100850008BF00040CDE902A0CDE902ABA4F1040881
:100860008DF810200DF11109012F33DBDDE90201B4
:100870000022002300F050FC2CD21C2102A800F022
:1008800063FCDDE9020100F0EBFC0446FF1F012FD1
:1008900009DB00F011FD02460B46DDE9020100F024
:1008A00023FDCDE9020109F20700072104E004F06D
:1008B0000F0200F8012D2411012C01DB491EF6D591
:1008C000491E5CBF002200F8012DF9D500F207098E
:1008D000012FCBDA0DF11100A9EB00010DF1110789
:1008E000B142B8BF0E4636B2002E31D430468842EF
:1008F00006DA04A941184978082928BF0F2100D237
:10090000002104AA821800E0761E401E12F8013968
:100910008B42F9D00F2904D104A941184A78521CFE
:100920004A70002803D504AF761C08F1040836B2DB
:10093000701E0DD4C1190A783032D2B23A2A03D3CC
:100940009DF838303A3B9A1801F80129401EF2D53B
:10095000686B002840F1E780701E6863E3E0DDE922
:1009600002010022002300F0BFFB05D2DDE90201F5
:1009700081F00041CDE9020124B247F29750604373
:100980006F4990FBF1F80FFA88F8C8F107040027C7
:10099000DFF8B091012C19DBDDE902ABE00707D5E8
:1009A000504659463A464B4600F05EFD82468B461D
:1009B0006410384649463A464B4600F055FD074616
:1009C0008946002CEAD1CDE902AB21E0644292468F
:1009D000DFF874B114D0E00707D5504659463A46BF
:1009E0004B4600F041FD82468B466410384649462E
:1009F0003A464B4600F038FD07468946002CEAD1BE
:100A0000DDE9020152465B4600F000FECDE902013D
:100A10009DF8000066280CBF08F10A000620696BEB
:100A20004618142EA8BF132630208DF810000DF1A3
:100A30001104464F012E33DBDDE9020100F026FCF4
:100A400004F1080104220A24B0FBF4F303EB830E43
:100A5000A0EB4E00303001F8010DB3FBF4F000EBD9
:100A60008004A3EB4403303301F8013D521EEAD168
:100A700001F10804083E012EDCDBDDE9020100F093
:100A800005FC00F023FC02460B46DDE9020100F004
:100A90002BFC00223B4600F0E7FCCDE90201CBE74E
:100AA0000DF11100201A0DF111079DF811103029D8
:100AB00006D1401EA8F1010817F8011F3029F8D00F
:100AC0009DF80010662904BF0FFA88F808F10101AB
:100AD00003D065290CBF012100216A6B8E1836B244
:100AE000B042B8BF064636B2002E1CD43146814211
:100AF00004DAC85D352828BF392000D23020CA1951
:100B0000521E00E0761E491E12F801398342F9D0C8
:100B1000392802D1C85D401CC855002903D57F1E65
:100B2000761C08F101080FFA88F0009033B23A46BB
:100B30009DF83810284600F00BF80FB0BDE8F08F94
:100B4000A0860100000024400000F03F84D79741B8
:100B50002DE9F04385B00546894617461E46BDF986
:100B60003040D5F83480012E02DA01260FF29C279E
:100B700049F0200066280AD0672840F086806FF090
:100B800003018C42C0F28780444580F28480641C5B
:100B900066280CD095F83C00000702D44645B8BF43
:100BA000B04624B2B8EB040848BF4FF000082869EB
:100BB000E96924B2012C25DA4A1C30230B54B8F120
:100BC000010F03DA95F83C10090702D52E211154C4
:100BD000521CEA6118EB040FB8BFC8F1000424B23C
:100BE0006142A962A044B045B8BF464636B22E6203
:100BF00032463946EB69181800F01CFAA8EB0600DB
:100C0000E862C6E00818A64218DA3246394600F013
:100C100011FAE9697118E961A01BA862B8F1010F26
:100C200003DA95F83C00000705D528692E220A54FE
:100C3000286A401C2862C5F82C80AAE02246394662
:100C400000F0F8F9E8692018E861361BB8F1010FE7
:100C500003DA95F83C10090704D5411CE9612969BC
:100C60002E22425436B2B045B8BF464636B232465E
:100C7000E119E8692B69C01800F0DCF9E86930185F
:100C8000E861A8EB0600A86283E0B9F1610F16D114
:100C90004FF0700918E0464504DA95F83C10090752
:100CA00058BFB046B8F1010848BF4FF00008B9F18D
:100CB000670F14BF4FF045094FF0650904E0B9F123
:100CC000410F08BF4FF05009E9694A1C286917F81D
:100CD000013B0B54B8F1010F03DA95F83C100907FA
:100CE00002D52E211154521CEA61B8F1010F11DB1B
:100CF000761E36B2B045B8BF464636B232463946A1
:100D0000EB69181800F096F9E8693018E861A8EB6B
:100D10000600A862E8692969471807F8019B002CBA
:100D20005CBF2B2007F8010B03D52D2007F8010B22
:100D3000644200260DF1080824B2012C0EDB0A22C1
:100D4000214600A800F085FD019808F8010B009CE1
:100D5000761C24B2012CF2DA022E06DA49F02000C9
:100D6000652804BF302007F8010B1EB9302007F8B2
:100D7000010B09E0012E07DB761E02A8305C303043
:100D800007F8010B012EF7DAE86929694018381ACB
:100D9000286295F83C0000F0140010280DD1A869D5
:100DA000E9690818A96A0818296A0818E96A081878
:100DB000A96B8842BCBF081A686205B0BDE8F08321
:100DC00070B504460D4616460020002E10D015F8CA
:100DD000011BE068A2689047E060002806D0206B05
:100DE000401C20630020761EF1D170BD4FF0FF3013
:100DF00070BD0000686A6C747A4C00006E616E0011
:100E00004E414E00696E6600494E4600300010B4F7
:100E100050F8041B81B102681218001D50F8043B01
:100E2000DC0744BFA9F10104E31852F8044B43F86E
:100E3000044B091FF9D1EBE710BC70470278C9B227
:100E40008A421AB11CBF10F8012FF9E718BF002021
:100E5000704750F8041B61B150F8042BD30744BF0E
:100E6000A9F101039A18002342F8043B091FFAD1A3
:100E7000EFE7704700F10103810704D010F8011B70
:100E800089B18107FAD10268B2F10131914311F0C1
:100E9000803F04BF50F8042FF6E710F8011B11B192
:100EA00010F8011BFBE7C01A70470000C9B28307A6
:100EB00006D0521E22D310F8013B9942F7D11FE011
:100EC000083A13D302F1040241EA012141EA014147
:100ED00050F8043B121F21BF4B40A3F1013C2CEA08
:100EE000030C1CF0803FF3D0C9B2001F083210F889
:100EF000013B521E28BF91EA030FF8D818BF01200A
:100F0000401E704713F0004C03D55B42524263F120
:100F100000039CEA210C15D11B4229D109424CD176
:100F20002AB18446B0FBF2F002FB10C2704700F019
:100F300097BCFCD30022002370470B000200002165
:100F40000020704710B5644603D34942404261F126
:100F50000001FFF7E1FF640004D34942404261F120
:100F60000001244203D55B42524263F1000310BDED
:100F7000904271EB030CE0D370B5B1FA81F4B3FA8F
:100F800083F52C1BA340C4F1200532FA05F6334348
:100F9000A2405FF00046E64002E05B085FEA3202F2
:100FA000841A71EB030524BF204629467641F4D309
:100FB00002000B003000002170BD012AB9D970B5C4
:100FC000140C20D0B1FA81F4B2FA82F5C4F12004F5
:100FD0006419B4F12006D6D3B2405FF00044F44067
:100FE000002502E052085FEA3303C61A71EB020ED5
:100FF00024BF3046714664416D41F3D302000B00BB
:101000002000290070BD0C46B1FBF2F102FB114536
:101010002D0445EA1045B5FBF2F402FB145580B2ED
:1010200040EA0545B5FBF2F002FB105240EA0440ED
:1010300070BD00004AB38B0707D0521E11F8013B68
:1010400000F8013B21D08B07F7D183071ED1103A5E
:1010500007D330B4B1E83810103AA0E83810F9D20C
:1010600030BC530724BFB1E80810A0E8081044BF03
:1010700051F8043B40F8043BD20724BF31F8022B5F
:1010800020F8022B44BF0B7803707047083A07D34F
:10109000B1E80810083A40F8043B40F804CBF7D216
:1010A0005307E4E770B4416801F0004201210D4BA1
:1010B00044681C40446001D104686CB10468456810
:1010C000E60F46EA4505456064000460491EEC02EF
:1010D000F4D544682340436043681A43426008469D
:1010E00070BC7047FFFF0F004FF4001C1CEB410F5A
:1010F00094BF1CEB430F09E041EA030C50EA4C0C8F
:1011000052EA0C0C03D2994208BF9042704714BFB8
:101110008B428242704700004FF4001C1CEB410FD1
:1011200094BF1CEB430F09E041EA030C50EA4C0C5E
:1011300052EA0C0C03D28B4208BF8242704714BFA4
:10114000994290427047000070B504460D466068B1
:10115000C0F30A5040F2FF72904209D16068000368
:1011600002D12068002801D0022070BD012070BD8E
:10117000010006D12046FFF795FF012801DB002082
:1011800070BD012D0EDB40F2FF71091A8D4209D3AB
:101190006068002847BF00202E4900202E49C4E97E
:1011A0000001E3E74142A942616806DA2B4A114097
:1011B000401941EA0050606049E001F00041626876
:1011C0001203120B42F480126260401E451905F1B1
:1011D0003500352803D361600020206070BD0022F7
:1011E00015F11F0F05DA20352268606820600020A5
:1011F0006060684213D0521E9241D243C0F1200376
:1012000025689D4055EAD2722568C540666806FA91
:1012100003F32B432360636823FA00F06060606887
:1012200008436060B2F1004F03D80AD12078C007AC
:1012300007D52068401C2060206810B96068401CF9
:10124000B9E76068884202D12068002897D04FF043
:10125000FF3070BD0000F0FF0000F07FFFFF0F8047
:10126000F446400D40EAC120490006D200F013F8D0
:10127000004248BF6FF00040604700F00CF84FF0AC
:10128000004188428CBF084640426047400D40EA1A
:10129000C12049000CD240F00040490DA1F5806109
:1012A000491C05D4D1F11F0154BFC840C017704775
:1012B0004FF0000070470000010040F10880F44644
:1012C000404200F004F851F000416047010009D0AD
:1012D000B0FA80F18840C91CC1F58461090501EBB1
:1012E000D02140057047000070B44FF0004591EAEE
:1012F000030F44BF6B4000F0BEBA841A71EB0306C3
:1013000004D26E40001BB141121973414FF4001C0E
:101310001CEB410F34BF7CEB430684E00C0DA4EBC7
:101320001356362E7DDC012E43DC45EAC32343EA07
:10133000525312BFD20292025B08240545EAC12132
:1013400041EA5051D2EBC020994125D407D1B0FADF
:1013500080F610FA06F164D00020203608E0B1FAD9
:1013600081F6B140C6F1200220FA02F21143B040EA
:101370004FEAF474B4EB465434F001064FEA7404B7
:101380000AD8D6F50016760D04F00044F04061FA54
:1013900006F25040F1404840C00A40EA415021F076
:1013A000004128BF5FEA500550F1000044EBD12115
:1013B00037E045EAC323DB0A45EAC121C90AB6F191
:1013C00020050EDD42EA0242120CC5F1200603FAA6
:1013D00006F6EB4042EA06056D42984161F10001D4
:1013E0000DE062FA06F5F240554063FA06FC82EA27
:1013F0000C02F3405A406D42904161EB030111F43D
:10140000801F05D1641E620502D06D004041494134
:1014100021F48011430875F1004350F1000041EBC5
:10142000045170BC70471CEB410F15D223F00043F0
:1014300052EA43060BD04FEA4C0CBCEB410F04D8E8
:101440000C0D661E342EB7DDEBE7801A994150EA89
:10145000410608BF0021E4E708BF1CEB430F28BF8B
:101460006FF00001DDE70000B0B581EA030C0CF07D
:10147000004C40F2FF7515EA11541DBF15EA1357D1
:10148000AC42AF4239E0E41923EA455343F48013F8
:10149000C90241F0004141EA505EC7021100A7FBBA
:1014A000020200284FF00000EEFB01204FF0000187
:1014B000E3FB072118BF42F0010240180021494117
:1014C000E3FB0E01A4F580640F0302D252004041F9
:1014D000494154F101046CDD470872F1004250F1BA
:1014E000000051EB0451A1F580115CBF41EA0C01F1
:1014F000B0BD4CEA05510020B0BD05EA1357AC421F
:1015000014BFAF4241E050EA410E1CBF52EA430E05
:1015100002E061460020B0BD24423C441BD15FEA9A
:10152000070EF6D0090302BF01460020AEF1140EEB
:10153000B1FA81F7AEEB070401FA07FE0C37C7F1E9
:10154000200100FA07F7C8404EEA000E23EA45538F
:1015500043F48013A2E733F00043B3FA83F704BFE8
:10156000B2FA82FE77440B3FE41BB7F1200E2FBF87
:1015700002FA0EF3BB40C7F1200E22FA0EFE38BF6E
:1015800043EA0E03BA40641C82E750EA410E14BFDE
:1015900052EA430E6FF000014FF4001717EB430FB0
:1015A0008ABF194617EB410FB5E74CEA05510020F9
:1015B000B0BDD4F10104B4F120070FDAC4F1200763
:1015C000520828BF42F0010210FA07F501FA07F7A6
:1015D000E1BF2A43E0403843E1400FE0352C98DC7E
:1015E000C7F1200452EA400220FA07F218BF42F085
:1015F000010231FA07F0A1400A43002172F10042D2
:1016000050F1000051EB0C01B0BD0000F0B540F20C
:10161000FF7581EA030C0CF0004C15EA11541DBF54
:1016200015EA1357AC42AF42E5E0BC41C1F31301E8
:10163000C3F31303801A994143F4801304D2641E48
:101640004000494180185941C90241EA5051B1FB5B
:10165000F3F603FB1611A2FB0675D7EBC020A941D8
:1016600002D2761E80185941C90241EA5051B1FB9D
:10167000F3FE03FB1E11A2FB0E75D7EBC020A941A0
:1016800003D2AEF1010E80185941890241EA90510E
:10169000760546EA8E2EB1FBF3F603FB1611A2FB8C
:1016A0000675D7EB8020A94102D2761E80185941D9
:1016B000C90241EA50514EEA060EB1FBF3F603FBB4
:1016C0001611A2FB0675D7EBC020A94102D2761EE7
:1016D00080185941C90241EA5051B1FBF3F703FBAD
:1016E0001711A2FB0735D3EBC020A94167F1000712
:1016F0000CBF004247F0010766F3D5274FEA1E31C1
:10170000B80814F5806412DDBD0775F1004250EB96
:101710000E5051EB045111F5801F5CBF41EA0C01E2
:10172000F0BD4CF07F6141F0E0410020F0BDBD070D
:101730006D0840EA0E5041F48011D4F10104B4F177
:1017400020060ADAC4F120060200E04001FA06F39E
:10175000E1401843B24015430EE0342C13DCC6F1CF
:10176000200445EA40056D0820FA06F2154321FAE7
:1017700006F0A1400D43002175F1004250F1000038
:1017800051EB0C01F0BD00205FEA0C01F0BDCFB9B8
:1017900092185B41B3FA83F704BFB2FA82F6BF191D
:1017A0000B3FB7F120062FBF02FA06F3BB40C7F18B
:1017B000200622FA06F638BF3343BA401CB1E419BA
:1017C000641E33E77F4231F00041B1FA81F404BF77
:1017D000B0FA80F6A4190B3CB4F120062FBF00FA32
:1017E00006F1A140C4F1200620FA06F638BF3143C5
:1017F000A0403C1B1AE7AC421ABF05EA1357AF42A0
:1018000012E050EA41061CBF52EA4306BFE750EA25
:101810004107304661461CBF41EA0551F0BD52EA1E
:10182000430C08BFC143F0BD00204FF4001616EB77
:10183000410F98BF16EB430F08BF16EB410F24BFB3
:10184000C14305E016EB430F0CBF61464CEA05515E
:10185000F0BD91FBF2F303FB1211C0E900317047B8
:101860007047000070B44FF0004591EA030C44BF8C
:101870006B40FFF742BD841A71EB030603D2001BD5
:10188000B141121973414FF4001C1CEB410F34BFDE
:101890007CEB430443E00C0DA4EB1356352E50DCD7
:1018A00045EAC323DB0A45EAC121C912B6F1200586
:1018B0000DDD63FA05F6EB4086EA0305124218BF18
:1018C00045F00105C01851F100010CD213E062FA95
:1018D00006F5F2405540F3415A40B340F3405A40B8
:1018E0008018594107D349085FEA30005FEA35059F
:1018F00028BF45F0010501F58011420875F100424D
:1019000050F1000041EB045170BC4FF4001C1CEB83
:10191000410F38BF70470020090D090570471CEBC7
:10192000410F10D252EA43060BD0BCEB410F05D851
:101930000C0DAB43661E342EB5DD02E0AB438018C0
:10194000594170BC704770BC7047000040B24109FB
:10195000584A012310F01F0013FA00F042F821004A
:10196000704740B24109544A012310F01F0013FA96
:1019700000F042F82100704738B50924002000F03B
:10198000ADF84FF4964000F071F8002000F0B4F884
:101990004A48002101709C21494800F02DF9182384
:1019A00002220021464800F017F90121444800F0C6
:1019B00028F90D20FFF7CAFF404800780028FBD027
:1019C0003E48002101700823022200213C4800F01B
:1019D00003F900220021002000F09FF87921384807
:1019E00000F00AF9182302220021354800F0F4F82B
:1019F0000121334800F005F9304800780028FBD079
:101A00000823022200212E4800F0E6F80D20FFF7FF
:101A1000A8FF002525E0EDB22A48295C2A4800F0FD
:101A2000F3F82A4800F0F0F8294800784006FBD483
:101A30004FF400734FF480620021EDB2280000F0F3
:101A400098F80121002000F06EF800F08CF80028D2
:101A5000FBD0002000F07DF801001E4800F0D4F813
:101A60006D1CEDB2E4B2A542D5D3FEE780B50023EC
:101A700003220100002000F0D9F8174800884FF633
:101A8000F0710840144908801348008850F009009C
:101A90001149088001BD80B5094800F0B0F801285F
:101AA00006D10121064800F0ACF80448012101707C
:101AB00001BD000000E100E080E100E00C0000203A
:101AC0000004004000000020441D0000B01D000084
:101AD00014600040BC1D000030600040002803D1AD
:101AE00004480021016002E0024801210160012058
:101AF0007047000014B10442102806D1314800217B
:101B0000018031489021017005E02F48007810F0E5
:101B1000EF002D49087001207047084310432A49FF
:101B2000087001207047284A1278D2B212F0F002F1
:101B3000002804D151EA02002349087007E0012976
:101B400003D110432049087001E01F4802700120B2
:101B5000704780B5002803D11C48008880B201E09E
:101B600000F00EF802BD1A480078C0B210F0010073
:101B700070470843104318431249088001207047FA
:101B800070B41448008880B21049098889B20A00EC
:101B900000230E244FF4805501E06D08641EE4B26A
:101BA000012C06D3520815EA0006AE42F5D1D3182F
:101BB000F3E7800401D5C81A00E05818800870BC0B
:101BC0007047000000000540040005400C0005407F
:101BD000080005401000054010B4848B640601D550
:101BE000002007E0048914F470640C4314431C4380
:101BF0000481012010BC7047018001207047808B58
:101C000070478181012070470EB400B582B003A9EE
:101C1000009100AB02460121034878440A30FEF7E8
:101C200067FA06BC5DF810FB7101000010B40F48A4
:101C300090FBF1F00E4C20800E4C94FBF0F090FBEA
:101C4000F1F0B0F5006050F408400B4908800B48F3
:101C50000021017013F07C0012F0030108430849D1
:101C6000087008480078C0B210BC704720A1070077
:101C7000285000400000093D24500040045000401E
:101C80000C5000401450004010B5084979441C31F4
:101C9000074C7C441A34A14206D0081D0A6851182A
:101CA00088470146A142F8D110BD00BF7400000072
:101CB0009400000010B582B0044614F1010F0AD060
:101CC0008DF80000012200A9012000F007F801288A
:101CD00001D1204616BD4FF0FF3016BD70B50C0087
:101CE0001500002609E0305D0A2802D10D2000F021
:101CF00009F8305D00F006F8761CAE42F3D33000F0
:101D000070BD000004490978C9B28906FAD50349B3
:101D10000870704700000000145000400050004060
:101D200033F1FFFF040000000C0000200000000061
:101D3000DFF0FFFF0C000000A0000000000000200A
:101D400000000000636F6E666967757265206368E6
:101D5000616E6E656C2025640A00000000F009F8D1
:101D6000002801D0FFF790FF0020FFF705FE00F0EC
:101D700002F80120704780B500F002F800BF0000B3
:101D80000746384600F002F8FBE70000014918203A
:101D9000ABBEFBE72600020038B504460D462846D8
:101DA000FFF788FFA84218BF0024204632BD00007C
:101DB000707265737320495251320A0072657375EF
:101DC0006C742025640A0000C046C046C046C04668
:101DD000FFF7C4FFFFF7FEBF000102030405090A75
:041DE0000B000000F4
:0400000500001DC911
:00000001FF
