:020000040000FA
:100000006005002005010000090100000B0100004F
:100010000D0100000F0100001101000000000000B0
:1000200000000000000000000000000013010000BC
:100030001501000000000000170100001901000078
:100040001B0100001B0100001B0100001B01000040
:1000500021010000BF0100005D020000E502000078
:100060001B010000CB1100001B0100001B01000060
:100070001B0100006D0300001B0100001B010000BC
:100080001B0100001B0100001B0100001B01000000
:100090001B0100001B0100001B0100001B010000F0
:1000A0001B0100001B0100001B0100001B010000E0
:1000B0001B0100001B0100001B0100001B010000D0
:1000C0001B0100001B0100001B0100001B010000C0
:1000D0001B0100001B0100001B0100001B010000B0
:1000E0001B0100001B0100001B0100001B010000A0
:1000F000DFF80CD001F040FA004800477D04000012
:100100006005002005480047FEE7FEE7FEE7FEE742
:10011000FEE7FEE7FEE7FEE7FEE7FEE7F100000090
:1001200010B5002000F02CFBC84800684FF0E0211B
:10013000C1F800014FF00000C5490860C5480068DB
:10014000F0B90120C3490860002000F01FFA012027
:10015000C14908600020C1490860C14908600AE03F
:100160000020C049BE4A126821F81200BC4800684D
:10017000401CBB490860BA4800687828F0DB07E0FB
:100180000020B4490860B44908600E2000F0FEF970
:10019000B548008840F4E040B3490880B2480830D0
:1001A000008840F01200B04908310880A748006874
:1001B00040F400504FF0E021C1F8000110BD10B52F
:1001C000002000F0DDFAA14800684FF0E021C1F8FE
:1001D00000014FF001009E490860A448006808B97A
:1001E000012000E000209B49096809B9012100E0D5
:1001F0000021084206D001209C4908600B2000F035
:10020000C5F914E099480068012800D100E00020F9
:100210009049096809B9012100E00021084206D08F
:100220000020924908609248006800F0AFF98E48BB
:10023000008840F4E0408C4908808B4808300088F2
:1002400040F012008849083108808048006840F476
:1002500000504FF0E021C1F8000110BD10B50020A2
:1002600000F08EFA794800684FF0E021C1F80001F3
:100270004FF00200764908607C48006808B9012008
:1002800000E000207349096809B9012100E000215C
:10029000084210D0764800680A2803D1012074492A
:1002A000086004E072480068401C714908607048AA
:1002B000006800F06BF96C48008840F4E0406A493F
:1002C000088069480830008840F01200664908310B
:1002D00008805E48006840F400504FF0E021C1F80B
:1002E000000110BD10B5002000F04AFA5748006820
:1002F0004FF0E021C1F800014FF0030054490860BD
:100300005A48006808B9012000E0002051490968F6
:1003100009B9012100E00021084210D054480068CA
:10032000012803D10A205249086004E050480068BF
:10033000401E4F4908604E48006800F027F94A48BF
:10034000008840F4E0404849088047480830008869
:1003500040F012004449083108803C48006840F4ED
:1003600000504FF0E021C1F8000110BD3E480830B8
:1003700000883D490831088048143E4908603448E7
:10038000006830B1012810D002281AD0032830D1DB
:1003900023E00820384908802C48006840F010000D
:1003A0004FF0E021C1F8000123E01020324908801D
:1003B0002648006840F020004FF0E021C1F800011D
:1003C00017E020202C4908802048006840F04000B9
:1003D0004FF0E021C1F800010BE0402026490880E1
:1003E0001A48006840F080004FF0E021C1F8000199
:1003F00000BF00BF704710B5002000F0C1F91E48D3
:100400001038008840F410401B4910390880081D3E
:10041000008840F00900091D08800846008840F067
:10042000900008800846008840F410600880124858
:10043000008840F07800104908800448006840F0C7
:10044000F0004FF0E021C1F8000110BD00E100E034
:100450000C00002000000020080000201C000020EC
:100460002000002030000020000400400400002094
:100470001000002080E100E0302400402C4800887B
:100480002B4908802B48008840F4AA60A1F890000E
:100490000846B0F8C00040F01500A1F8C0000846BA
:1004A000007940F0FF000871084690F8940040F091
:1004B0003C0081F89400084690F8C40040F0070022
:1004C0001D4908704FF0FF00194908774FF03C00B4
:1004D0001A4908704FF00700154981F8DC000846FA
:1004E000008808800846008E08860846008E088628
:1004F0000846008E0886FFF77EFF00220221104684
:1005000000F02EF901200E4908600846006800F04E
:100510003DF800F091FE0AE0002000F031F90948B2
:100520000068012801D100F04FF900F00DF8F3E761
:100530000060004090600040C4600040AC6000403B
:10054000100000200800002010B5002443F20170C4
:100550000D4908800120087100BF0B48007A08B9D6
:10056000012000E0002010F0010FF6D10648848938
:1005700042F6F820844203DC0C2000F007F802E089
:100580000D2000F003F810BD000005400F2810D228
:10059000DFE800F010182838485868788898A8B81C
:1005A000C8D108006849097841F00201674A82F819
:1005B000DC10C7E06649097841F00201634A82F81D
:1005C000E010BFE0FF21614A11773C21614A1170C0
:1005D0004FF007015D4A82F8DC104FF001015C4AE0
:1005E0001170AFE0FF21594A11773C21594A11702F
:1005F0004FF00701554A82F8DC104FF04001564A8F
:1006000011709FE0FF21514A11773C21514A11702E
:100610004FF007014D4A82F8DC104FF020014E4A9E
:1006200011708FE0FF21494A11773C21494A11702E
:100630004FF00701454A82F8DC104FF01001464A9E
:1006400011707FE0FF21414A11773C21414A11702E
:100650004FF007013D4A82F8DC104FF008013E4A96
:1006600011706FE0FF21394A11773C21394A11702E
:100670004FF00701354A82F8DC104FF00401364A8A
:1006800011705FE0FF21314A11773C21314A11702E
:100690004FF007012D4A82F8DC104FF002012E4A7C
:1006A00011704FE0FF21294A11773C21294A11702E
:1006B0004FF00701254A82F8DC104FF00101264A6D
:1006C00011703FE0FF21214A11773C21214A11702E
:1006D0004FF007011D4A82F8DC104FF020011F4A3D
:1006E00011702FE0FF21194A11773C21194A11702E
:1006F0004FF00701154A82F8DC104FF00401174A49
:1007000011701FE0FF21114A11773C21114A11702D
:100710004FF007010D4A82F8DC104FF004010C4A3B
:1007200011700FE008210B4A11704FF01001074AB9
:1007300082F8B01006E00821064A1170034A82F8D8
:10074000B01000BF00BF7047DC6000400060004098
:10075000E0600040AC60004020600040B0600040BD
:1007600030B503460C461648008800F0200141F0E1
:100770004001194321431143114D2980012030BD0F
:10078000014619B900200F4A106002E001200D4A0D
:1007900010604FF0010070470146094A083A118085
:1007A000012070470648001F008870470448103039
:1007B000008870470146024A121D118001207047CF
:1007C0008825004014B1044210B500244FF40850AD
:1007D000134908800120087100BF1148007A08B948
:1007E000012000E0002010F0010FF6D10C488089B4
:1007F00004B2E0B20B490C4A126821F812000A4810
:100800000068401C0849086008460068782806D13E
:100810000449F02000F026FD00200349086010BDC7
:1008200000000540300000201C0000200146002090
:1008300009B101220A607047024600204FF04023B0
:100840001A7200BF4FF040231B8813F4E06FF9D0F9
:1008500021B14FF040231B790B7002E04FF0402391
:100860001B79704738B505460024092000F051FD7A
:100870000820FE49087024B90021FF20FFF7DCFFA3
:10088000044624B96946FF20FFF7D6FF0446082036
:10089000F74908704FF0090000F02FFD2CB925B181
:1008A0009DF8000000F01F002870204638BD38B5C4
:1008B0000446002500BF6846FFF7D4FF05461DB972
:1008C0009DF80000A042F6D1284638BD70B5044618
:1008D0000D460026092000F01CFD0820E3490870A1
:1008E00005E014F8010B0021FFF7A6FF06462800DB
:1008F000A5F10101CDB201D0002EF2D00820DC49D3
:1009000008704FF0090000F0F8FC304670BD38B5B3
:100910000446009401216846FFF7D8FF38BD38B57A
:1009200000241CB96846FFF79DFF04462FE09DF8A0
:10093000000020B113280ED0142817D100E020E0C9
:100940001CB9B120FFF7E3FF04461CB91220FFF7E2
:10095000AEFF044615E01CB9B120FFF7D8FF0446EE
:100960001CB91220FFF7A3FF04460AE01CB9B1200E
:10097000FFF7CDFF04461CB91220FFF798FF04468D
:1009800000BF00BF1CB96846FFF76CFF04469DF826
:100990000000122801D0002CC9D0204638BD38B53F
:1009A000002400BF092000F0B4FC0820AF49087003
:1009B00024B90021FF20FFF73FFF044624B9694610
:1009C000FF20FFF739FF04460820A94908704FF0BF
:1009D000090000F092FC2CB99DF8000010F0200FE7
:1009E00000D001E0002CDDD000BF204638BD38B576
:1009F00005460024009514B9FFF7D1FF044624B939
:100A000001216846FFF762FF0446204638BD2DE904
:100A1000F04105460F4616460024092000F079FCF7
:100A20000820924908703CB9C5F3022141F0180032
:100A30000021FFF701FF044624B9E8B20021FFF7C7
:100A4000FBFE044605E016F8010B0021FFF7F4FE5B
:100A500004463800A7F1010701D0002CF3D008208C
:100A6000834908704FF0090000F047FC2046BDE8BC
:100A7000F08138B500241CB96846FFF7F3FE044640
:100A80002FE09DF8000020B113280ED0142817D1B4
:100A900000E020E01CB9B120FFF739FF04461CB983
:100AA0001220FFF704FF044615E01CB9B120FFF740
:100AB0002EFF04461CB91220FFF7F9FE04460AE097
:100AC0001CB9B020FFF723FF04461CB91120FFF723
:100AD000EEFE044600BF00BF1CB96846FFF7C2FE29
:100AE00004469DF80000112801D0002CC9D02046F2
:100AF00038BD10B5002414B9FFF7BBFF04462CB96C
:100B00005C4A40218800FFF782FF04461CB9BB20E5
:100B1000FFF76DFF044614B9FFF701FF04462046B6
:100B200010BD38B500245448007800B30020009070
:100B300034B96A46012140F2FA30FFF768FF0446F3
:100B40000420009034B96A46012140F22E30FFF7AC
:100B50005EFF0446002000902CB96A4601210D205A
:100B6000FFF755FF044600204349087000BF434883
:100B7000007830B1FFF7BDFF044614B900203F49AB
:100B80000870204638BD70B50446002501203B4959
:100B9000087024B1012C0CD0022C1DD113E040228E
:100BA0003749344800F0CEFB4FF47A70354908607D
:100BB00014E0402234492F4800F0C4FB4FF41640A3
:100BC000304908600AE0402230492A4800F0BAFB68
:100BD0002F482C49086001E0022500BF00BF2846CD
:100BE00070BD10B500241CB9A220FFF700FF044619
:100BF00014B9FFF7D4FE0446204610BD00200021A2
:100C000008221A4B1A7000E0491C224A126812B9D5
:100C1000B1F57A7FF8DBB1F57A7F00D101200822A7
:100C2000134B1A70704770B50025C820FFF76FFE90
:100C300005464FF4805400BF2000A4F10104FBD10D
:100C4000284670BD70B505460024092000F061FB00
:100C50004FF4C250104908804FF008000F4981F846
:100C600064004FF000000E4908601BE08060004007
:100C70007C6000402001002025000020240000208E
:100C80005816000028000020D81500001816000093
:100C9000E0930400800E0C42606000400060004061
:100CA000100D0C424FF001004FF04021888143F2BB
:100CB000430008824FF0430008824FF00800FE49CD
:100CC00008704FF00B00FD4908804FF48070FC491C
:100CD00008804FF009004FF0010101FA00F1F94AD4
:100CE0004FEA501342F8231000BF4FF000010028D4
:100CF00007DA4A07160EF44A00F00F031B1FD654FA
:100D000003E04A07130EF14A135400BF092000F014
:100D1000F4FA14B9FFF787FF044614B9FFF76EFF22
:100D2000044614B9FFF75DFF044614B9FFF7A1FEAE
:100D300004461CB92846FFF726FF044614B9FFF7FE
:100D4000F0FE044614B9FFF7EAFD0446204670BDE4
:100D500010B50024FFF7E3FD0446204610BD2DE941
:100D6000F04781464FF0000A0120D94908704846F3
:100D700000F06CFB0746D74AD74B00F0F5FA054662
:100D800000F071FB0446D5494C72200A8872200C91
:100D9000C872D348814504D30720487616200876C8
:100DA00004E00320CD494876082008765046BDE887
:100DB000F08730B502460020C84C637D12B1012A8D
:100DC00004D101E0002103E0082101E0022000BF7E
:100DD00000BF70B9C14C647D24F0380444EA0103BB
:100DE000BE4C647D9C4204D00124B94D2C70BB4C98
:100DF000637530BD10B502460020B84B197F12B1A3
:100E0000012A06D102E021F0400104E041F0400156
:100E100001E0022000BF00BF40B9B04B1B7F8B42F6
:100E200004D00123AA4C2370AC4B197710BD10B528
:100E300002460020A94B197F12B1012A06D102E017
:100E400021F0080104E041F0080101E0022000BFA8
:100E500000BF40B9A14B1B7F8B4204D001239C4CA7
:100E600023709E4B197710BD70B505460E460024C1
:100E700000209C490870F02D00DD042414B9FFF710
:100E80004EFD04462CB9324629461020FFF7BFFD1F
:100E900004464CB9914880F8275090F8260040F05D
:100EA00040008E4981F8260014B9FFF73AFE044647
:100EB00014B9FFF734FD04461CB9B520FFF797FDC0
:100EC0000446204670BD8748007870472DE9F04100
:100ED00005460A460020002115B1012D05D102E08A
:100EE00041F0800103E000BF01E0022000BF00BF2D
:100EF000002840D1102A3BD2DFE802F008090A0B93
:100F00000C0D0E0F101112131415161700BF00BF91
:100F100000BF00BF00BF00BF00BF00BF00BF00BFD9
:100F200000BF00BF00BF00BF00BF41EAC203D9B28B
:100F3000032303EB820C6C4B1B684FF06408B3FB7C
:100F4000F8F840F6C4130CFB03F3B3FBF8F70124E5
:100F5000260207E0641C4FF4007343FA04F6072CE2
:100F600000D301E0BE42F5D800BFE3B2194301E06F
:100F7000022000BF00BF50B9584B1B7D8B4206D0EA
:100F80000123DFF84C8188F80030544B1975BDE817
:100F9000F08138B500240320009014B9FFF7C1FD9B
:100FA000044601205149087014B9FFF7B8FC044603
:100FB0002CB96A4601210D20FFF729FD04461CB912
:100FC000B520FFF714FD0446204638BD38B500248F
:100FD0000220009014B9FFF7A4FD044614B9FFF7EE
:100FE0009EFC04460120414908702CB96A46012143
:100FF0000D20FFF70CFD04461CB9B520FFF7F7FCE8
:101000000446204638BD70B5054600240020384906
:101010000870F02D00DD04244CB9304880F82750CA
:1010200090F8260040F040002C4981F8260014B9C1
:10103000FFF777FD044614B9FFF771FC04461CB9AD
:10104000B220FFF7D4FC0446204670BD2848007843
:1010500070472DE9F04105460E4617460024092049
:1010600000F057F90820234908703CB9C5F3022164
:1010700041F038000021FFF7DFFB044624B9E8B255
:101080000021FFF7D9FB044624B90021FF20FFF718
:10109000D3FB044605E039467F1CFF20FFF7CCFB5D
:1010A00004463000A6F1010601D0002CF3D0082040
:1010B0000149087020E000007C60004028240040C6
:1010C0003024004080E200E018ED00E000E400E0A1
:1010D00024000020AFC0EE131DA6643F20010020B5
:1010E000801361332C000020280000202500002000
:1010F0002D000020806000404FF0090000F0FDF856
:101100002046BDE8F0812DE9F04706460C469146A1
:101110001D460027FFF79AFF48B3824890F8260043
:1011200010F0400F1FD01CB17E4890F827002070AF
:101130007C4890F82780B04500DDB0462FB94A467C
:1011400041461020FFF785FF07467DB137B92A4693
:10115000012140F21230FFF77CFF074628786B38F8
:1011600040B2287002E00CB10020207002E00CB107
:10117000002020703846BDE8F08738B5002440F2E2
:10118000E1706949088014B9FFF7CBFC04460120DF
:1011900066490870A020009034B96A46012140F2E7
:1011A000FA30FFF734FC04460020009034B96A4658
:1011B000012140F22E30FFF72AFC04461CB9B22070
:1011C000FFF715FC0446204638BD1CB5002434B991
:1011D00001AA012140F23630FFF73BFF044634B943
:1011E0006A46012140F23730FFF733FF04469DF88D
:1011F000040010F0100F02D001204D4908709DF836
:10120000040010F0040F02D001204A49087034B9DC
:1012100001AA012140F23630FFF7F9FB044634B948
:101220006A46012140F23730FFF7F1FB04464FF4E4
:101230008070414908801CBD10B500240020FFF7D4
:101240009FFA1CB90120FFF7FDFC04461CB93B487E
:10125000FFF785FD044624B90F210020FFF736FE75
:10126000044610BD70B504460D46002626B9294631
:101270002046FFF7F9FD064670BD38B500241CB9BD
:101280006846FFF7EFFA04462FE09DF8000020B112
:1012900013280ED0142817D100E020E01CB9B1208B
:1012A000FFF735FB04461CB91220FFF700FB04468C
:1012B00015E01CB9B120FFF72AFB04461CB9122027
:1012C000FFF7F5FA04460AE01CB9BA20FFF71FFB46
:1012D00004461CB90620FFF7EAFA044600BF00BF27
:1012E0001CB96846FFF7BEFA04469DF800000628C0
:1012F00001D0002CC9D0204638BD00F01F020121CA
:10130000914042094FF0E02303EB8202C2F8001142
:10131000704700F01F0201219140094A430942F839
:101320002310704720010020248800402500002061
:101330002C0000202D00002030240040400ECF194A
:1013400080E100E040EA01039B0703D009E008C9FF
:10135000121F08C0042AFAD203E011F8013B00F87A
:10136000013B521EF9D270472DE9FE4F81EA03047A
:1013700004F0004421F0004100944FF0000B23F0F2
:10138000004350EA010402D052EA030404D10020D1
:10139000014603B0BDE8F08FC3F30A54C1F30A5508
:1013A0002C44A4F2F3340194A0FB0254C1F31301C2
:1013B00041F48011C3F3130343F4801301FB02448F
:1013C00000FB034E840A970A44EA815447EA835794
:1013D000A4FB076802958D0A05FB07854FEA932C4D
:1013E00004FB0C542705029D4FEA065847EA1637BE
:1013F000B5EB08056EEB070C870E920E47EA8117D6
:1014000042EA8312A7FB0201B6EB0B0164EB000476
:101410002B0D43EA0C335E1844EB1C50DA46514660
:10142000E7FB0201C5F313044FEA0B3343EA1453FD
:101430004FEA0432019C43EA0603A4F10C0402942F
:10144000009CCDE900B400F044F8A2E70EB540F2EC
:10145000334102910021CDE900110A460B4600F00C
:1014600038F803B000BDC1F30A5210B5C1F313013F
:1014700040F2FF3341F480119A4201DA002010BD9E
:1014800040F233439A42A2F2334203DC524200F06C
:1014900003F810BD904010BD202A04DB203A21FA49
:1014A00002F00021704721FA02F3D040C2F120027D
:1014B000914008431946704710B5002B08DA401CCC
:1014C00041F1000192185B411A4301D120F0010063
:1014D00010BD2DE9F04D92469B4611B1B1FA81F253
:1014E00002E0B0FA80F22032904600F057F804464D
:1014F0000F4640EA0A0041EA0B0153465A460843A8
:1015000003D120463946BDE8F08D114653EA01006B
:1015100015D0C8F140025046FFF7BEFF05460E4603
:1015200050465946424600F039F8084301D00120A0
:1015300000E00020054346EAE0762C4337430A9852
:101540004FEA4453A0EB08004FEAD4240A304FF08E
:10155000000244EA47544FEAD72502D5002001464D
:10156000D1E7010510196941DDE908450019694114
:10157000BDE8F04DA0E70000064C074D06E0E0682E
:1015800040F0010394E8070098471034AC42F6D3CA
:10159000FEF7B2FD98160000B8160000202A04DB02
:1015A000203A00FA02F1002070479140C2F1200376
:1015B00020FA03F319439040704702E008C8121F55
:1015C00008C1002AFAD170477047002001E001C12C
:1015D000121F002AFBD1704714000000FFFF0533E3
:1015E000313BB1238001C0200E0058C3FD000B37F2
:1015F0001607400C000C00001000C336101024F039
:101600002A002F195E465F780000000000000000ED
:10161000000000000000000014000000FFFF053380
:10162000313BB123B82BEE16720A58C3FDC00B37FD
:101630001607400A000C00001000C336101024F0FA
:101640002A002F195E465F780000000000000000AD
:10165000000000000000000014000000FFFF053340
:10166000313BB1230A00644101005AC3FD000B372E
:101670001607400C000C00001000C336101024F0B8
:101680002A002F195E465F7800000000000000006D
:101690000000000000000000B8160000000000205C
:1016A00030000000BA150000E816000030000020ED
:1016B00030050000CA150000000000000000000016
:1016C000000000000000000000000000000000001A
:1016D000000000000000000000000000000000000A
:0816E00000960000000000006C
:04000005000000F106
:00000001FF
