:020000040000FA
:100000005805002005010000090100000B01000057
:100010000D0100000F0100001101000000000000B0
:1000200000000000000000000000000013010000BC
:100030001501000000000000170100001901000078
:100040001B0100001B0100001B0100001B01000040
:100050001B0100001B0100001B0100001B01000030
:100060001B010000A30B00001B0100001B0100008E
:10007000850D00001B0100001B0100001B0100009A
:100080001B0100001B0100001B0100001B01000000
:100090001B0100001B0100001B0100001B010000F0
:1000A0001B0100001B0100001B0100001B010000E0
:1000B0001B0100001B0100001B0100001B010000D0
:1000C0001B0100001B0100001B0100001B010000C0
:1000D0001B0100001B0100001B0100001B010000B0
:1000E0001B0100001B0100001B0100001B010000A0
:1000F000DFF80CD001F034F900480047210100007E
:100100005805002005480047FEE7FEE7FEE7FEE74A
:10011000FEE7FEE7FEE7FEE7FEE7FEE7F100000090
:1001200000F076FD0446012000F02FFB00F002FFF6
:1001300042200749088000F00DF814B9EE2000F0C5
:100140004EFC04E000200249088000F005FEF9E7BB
:100150008825004010B542F2017013490880032041
:10016000087100BF1048007A08B9012000E00020A3
:1001700010F0010FF6D1002400E0641C142CFCDB0D
:100180000948808900B2094908800846B0F9000092
:1001900042F21071884203DC022000F009F802E00C
:1001A000012000F005F810BD00000540000000200F
:1001B00030B101280DD0022812D0032818D113E045
:1001C00008210C4A11704FF010010B4A82F8B01050
:1001D0000EE00821074A1170074A82F8B01007E0C4
:1001E0000421064A117003E00421054A117000BF82
:1001F00000BF7047AC60004000600040DC60004021
:10020000E06000400146002009B101220A60704709
:10021000024600204FF040231A7200BF4FF04023E7
:100220001B8813F4E06FF9D021B14FF040231B7904
:100230000B7002E04FF040231B79704738B505463C
:100240000024092000F06FFD0820FE49087024B941
:100250000021FF20FFF7DCFF044624B96946FF2098
:10026000FFF7D6FF04460820F74908704FF0090051
:1002700000F04DFD2CB925B19DF8000000F01F00E5
:100280002870204638BD38B50446002500BF6846B2
:10029000FFF7D4FF05461DB99DF80000A042F6D136
:1002A000284638BD70B504460D460026092000F0EA
:1002B0003AFD0820E349087005E014F8010B00211D
:1002C000FFF7A6FF06462800A5F10101CDB201D037
:1002D000002EF2D00820DC4908704FF0090000F031
:1002E00016FD304670BD38B50446009401216846BD
:1002F000FFF7D8FF38BD38B500241CB96846FFF7B2
:100300009DFF04462FE09DF8000020B113280ED079
:10031000142817D100E020E01CB9B120FFF7E3FF5B
:1003200004461CB91220FFF7AEFF044615E01CB9C5
:10033000B120FFF7D8FF04461CB91220FFF7A3FF36
:1003400004460AE01CB9B120FFF7CDFF04461CB9F2
:100350001220FFF798FF044600BF00BF1CB9684693
:10036000FFF76CFF04469DF80000122801D0002C16
:10037000C9D0204638BD38B5002400BF092000F0A0
:10038000D2FC0820AF49087024B90021FF20FFF7F4
:100390003FFF044624B96946FF20FFF739FF0446B2
:1003A0000820A94908704FF0090000F0B0FC2CB9F2
:1003B0009DF8000010F0200F00D001E0002CDDD0EF
:1003C00000BF204638BD38B505460024009514B955
:1003D000FFF7D1FF044624B901216846FFF762FF09
:1003E0000446204638BD2DE9F04105460F46164625
:1003F0000024092000F097FC0820924908703CB9BD
:10040000C5F3022141F018000021FFF701FF044667
:1004100024B9E8B20021FFF7FBFE044605E016F818
:10042000010B0021FFF7F4FE04463800A7F1010795
:1004300001D0002CF3D00820834908704FF0090048
:1004400000F065FC2046BDE8F08138B500241CB9F9
:100450006846FFF7F3FE04462FE09DF8000020B148
:1004600013280ED0142817D100E020E01CB9B120C9
:10047000FFF739FF04461CB91220FFF704FF0446BA
:1004800015E01CB9B120FFF72EFF04461CB912205D
:10049000FFF7F9FE04460AE01CB9B020FFF723FF7E
:1004A00004461CB91120FFF7EEFE044600BF00BF52
:1004B0001CB96846FFF7C2FE04469DF800001128EB
:1004C00001D0002CC9D0204638BD10B5002414B985
:1004D000FFF7BBFF04462CB95C4A40218800FFF7B8
:1004E00082FF04461CB9BB20FFF76DFF044614B918
:1004F000FFF701FF0446204610BD38B500245448DC
:10050000007800B30020009034B96A46012140F21F
:10051000FA30FFF768FF04460420009034B96A46B9
:10052000012140F22E30FFF75EFF044600200090CC
:100530002CB96A4601210D20FFF755FF0446002023
:100540004349087000BF4348007830B1FFF7BDFF52
:10055000044614B900203F490870204638BD70B5E4
:100560000446002501203B49087024B1012C0CD021
:10057000022C1DD113E040223749344800F0D6FD4B
:100580004FF47A703549086014E0402234492F480E
:1005900000F0CCFD4FF41640304908600AE04022DC
:1005A00030492A4800F0C2FD2F482C49086001E07C
:1005B000022500BF00BF284670BD10B500241CB93D
:1005C000A220FFF700FF044614B9FFF7D4FE04464B
:1005D000204610BD0020002108221A4B1A7000E0AE
:1005E000491C224A126812B9B1F57A7FF8DBB1F5DD
:1005F0007A7F00D101200822134B1A70704770B522
:100600000025C820FFF76FFE05464FF4805400BF59
:100610002000A4F10104FBD1284670BD70B5054649
:100620000024092000F07FFB4FF4C25010490880DD
:100630004FF008000F4981F864004FF000000E49A8
:1006400008601BE0806000407C60004028000020C3
:1006500005000020040000204014000008000020D5
:10066000C013000000140000E0930400800E0C4250
:100670006060004000600040100D0C424FF001002F
:100680004FF04021888143F2430008824FF043003D
:1006900008824FF00800FE4908704FF00B00FD493A
:1006A00008804FF48070FC4908804FF009004FF03B
:1006B000010101FA00F1F94A4FEA501342F8231000
:1006C00000BF4FF00001002807DA4A07160EF44A6F
:1006D00000F00F031B1FD65403E04A07130EF14A24
:1006E000135400BF092000F012FB14B9FFF787FF75
:1006F000044614B9FFF76EFF044614B9FFF75DFF17
:10070000044614B9FFF7A1FE04461CB92846FFF7BA
:1007100026FF044614B9FFF7F0FE044614B9FFF7AC
:10072000EAFD0446204670BD10B50024FFF7E3FD46
:100730000446204610BD2DE9F04781464FF0000ADF
:100740000120D9490870484600F074FD0746D74A91
:10075000D74B00F0FDFC054600F079FD0446D54975
:100760004C72200A8872200CC872D348814504D389
:10077000072048761620087604E00320CD49487605
:10078000082008765046BDE8F08730B502460020C4
:10079000C84C637D12B1012A04D101E0002103E0BD
:1007A000082101E0022000BF00BF70B9C14C647D88
:1007B00024F0380444EA0103BE4C647D9C4204D01A
:1007C0000124B94D2C70BB4C637530BD10B5024689
:1007D0000020B84B197F12B1012A06D102E021F0A6
:1007E000400104E041F0400101E0022000BF00BFF1
:1007F00040B9B04B1B7F8B4204D00123AA4C23701D
:10080000AC4B197710BD10B502460020A94B197FDB
:1008100012B1012A06D102E021F0080104E041F002
:10082000080101E0022000BF00BF40B9A14B1B7FBF
:100830008B4204D001239C4C23709E4B197710BD32
:1008400070B505460E46002400209C490870F02D26
:1008500000DD042414B9FFF74EFD04462CB93246DE
:1008600029461020FFF7BFFD04464CB9914880F897
:10087000275090F8260040F040008E4981F826006D
:1008800014B9FFF73AFE044614B9FFF734FD0446E5
:100890001CB9B520FFF797FD0446204670BD874878
:1008A000007870472DE9F04105460A4600200021F6
:1008B00015B1012D05D102E041F0800103E000BF38
:1008C00001E0022000BF00BF002840D1102A3BD227
:1008D000DFE802F008090A0B0C0D0E0F10111213BD
:1008E0001415161700BF00BF00BF00BF00BF00BF38
:1008F00000BF00BF00BF00BF00BF00BF00BF00BF00
:1009000000BF41EAC203D9B2032303EB820C6C4B54
:100910001B684FF06408B3FBF8F840F6C4130CFBF7
:1009200003F3B3FBF8F70124260207E0641C4FF43D
:10093000007343FA04F6072C00D301E0BE42F5D859
:1009400000BFE3B2194301E0022000BF00BF50B96D
:10095000584B1B7D8B4206D00123DFF84C8188F871
:100960000030544B1975BDE8F08138B500240320E0
:10097000009014B9FFF7C1FD0446012051490870E9
:1009800014B9FFF7B8FC04462CB96A4601210D20C2
:10099000FFF729FD04461CB9B520FFF714FD0446F6
:1009A000204638BD38B500240220009014B9FFF766
:1009B000A4FD044614B9FFF79EFC044601204149FA
:1009C00008702CB96A4601210D20FFF70CFD044682
:1009D0001CB9B520FFF7F7FC0446204638BD70B5BA
:1009E00005460024002038490870F02D00DD04245D
:1009F0004CB9304880F8275090F8260040F040006D
:100A00002C4981F8260014B9FFF777FD044614B984
:100A1000FFF771FC04461CB9B220FFF7D4FC044672
:100A2000204670BD2848007870472DE9F041054602
:100A30000E4617460024092000F075F908202349C6
:100A400008703CB9C5F3022141F038000021FFF7DE
:100A5000DFFB044624B9E8B20021FFF7D9FB0446C6
:100A600024B90021FF20FFF7D3FB044605E03946F7
:100A70007F1CFF20FFF7CCFB04463000A6F10106E7
:100A800001D0002CF3D008200149087020E00000BC
:100A90007C600040282400403024004080E200E0D8
:100AA00018ED00E000E400E004000020AFC0EE1309
:100AB0001DA6643F28000020801361330C00002035
:100AC00008000020050000200D000020806000408C
:100AD0004FF0090000F01BF92046BDE8F0812DE938
:100AE000F04706460C4691461D460027FFF79AFF41
:100AF00048B3914890F8260010F0400F1FD01CB169
:100B00008D4890F8270020708B4890F82780B045DA
:100B100000DDB0462FB94A4641461020FFF785FF59
:100B200007467DB137B92A46012140F21230FFF75E
:100B30007CFF074628786B3840B2287002E00CB181
:100B40000020207002E00CB1002020703846BDE883
:100B5000F08738B5002440F2E1707849088014B974
:100B6000FFF7CBFC0446012075490870A0200090D7
:100B700034B96A46012140F2FA30FFF734FC0446EA
:100B80000020009034B96A46012140F22E30FFF770
:100B90002AFC04461CB9B220FFF715FC0446204687
:100BA00038BD1CB5002434B901AA012140F2363009
:100BB000FFF73BFF044634B96A46012140F2373063
:100BC000FFF733FF04469DF8040010F0100F02D029
:100BD00001205C4908709DF8040010F0040F02D059
:100BE00001205949087034B901AA012140F2363078
:100BF000FFF7F9FB044634B96A46012140F2373069
:100C0000FFF7F1FB04464FF48070504908801CBD8B
:100C100010B500241CB90220FFF700FD04461CB9E2
:100C20004B48FFF788FD0446204610BD70B50446CA
:100C300000252046FFF7D3FE0546284670BD10B5B7
:100C400000241CB90120FFF7E9FC04461CB9404808
:100C5000FFF771FD044624B90F210020FFF722FEA3
:100C60000446204610BD70B504460D462946204670
:100C7000FFF7E6FD0646304670BD38B500241CB9C6
:100C80006846FFF7DBFA04462FE09DF8000020B12C
:100C900013280ED0142817D100E020E01CB9B12091
:100CA000FFF721FB04461CB91220FFF7ECFA0446BB
:100CB00015E01CB9B120FFF716FB04461CB9122041
:100CC000FFF7E1FA04460AE01CB9BA20FFF70BFB74
:100CD00004461CB90620FFF7D6FA044600BF00BF41
:100CE0001CB96846FFF7AAFA04469DF800000628DA
:100CF00001D0002CC9D0204638BD70B505460C4641
:100D0000224602212846FFF790FE064670BD00F0FD
:100D10001F020121914042094FF0E02303EB8202C0
:100D2000C2F80011704700F01F0201219140094AEA
:100D3000430942F82310704728000020248800400F
:100D4000050000200C0000200D0000203024004091
:100D5000400ECF1980E100E04FF08040008840F065
:100D600006004FF0804108800846008940F01000DE
:100D700008816248006840F480504FF0E021C1F8DB
:100D80000001704710B54FF480505D490860FFF7CF
:100D900049FE002861D05B491020FFF7AEFF59489B
:100DA000B0F900005849B1F90010884207D0554801
:100DB000B0F900005549B1F9001088424DD100202A
:100DC000534908600320FFF7F3F9012051490860F7
:100DD00051490978491C49001031C8B24F49FFF701
:100DE0008CFF4E48B0F900004D494B4A126821F87B
:100DF000120049490978491C49003731C8B24749AE
:100E0000FFF77BFF4548B0F900004649424A1268A7
:100E100021F8120040490978491C49005E31C8B2E6
:100E20003E49FFF76AFF3D48B0F900103E483A4A94
:100E3000126820F8121038480068401C36490860D3
:100E400008460068272808D1EC20FFF7EFFE0020B5
:100E5000314908600220FFF7ABF92E4800680128ED
:100E600045D12B480068272806DA2D48284909680B
:100E700030F911002D4908602548006827280BDB50
:100E8000234800684E2807DA21480068273825499A
:100E900031F91000254908601D4800684E280BDB19
:100EA0001B480068762807DA194800684E381D4943
:100EB00031F910001D49086015480068401C1449AC
:100EC000086008460068762805D14FF46170086014
:100ED0000020104908600120154908701348006877
:100EE00000F08EF801201249DC3981F8E0004FF063
:100EF000804000894FF08041088110BD00E100E092
:100F000080E100E0220000201C0000201E000020E4
:100F100018000020140000201000002020000020F5
:100F20000401002068000020B600002024000020FA
:100F3000DC6000402C4800882B4908800846008E61
:100F400040F0540008862948008840F4A070A1F8B9
:100F500090000846B0F8C00040F01000A1F8C000B2
:100F60000846007940F0FF000871084690F8340008
:100F700040F03F0081F83400084690F8940040F0BB
:100F8000180081F89400084690F8C40040F004006E
:100F900081F8C400084690F8200040F0FF0081F876
:100FA0002000084690F8500040F03F0010490870BB
:100FB0004FF018000F4908704FF004000A4981F8FB
:100FC000DC000846B0F8C00040F00100A1F8C00005
:100FD000084690F8C40040F00100074908704FF03F
:100FE00001000649087070470060004090600040B2
:100FF00050600040AC600040C4600040E0600040D1
:1010000010F0010F03D00121444A117702E00121C1
:10101000434A117000F00201022902D13F4A1177C0
:1010200002E002213E4A117000F00401042902D1BD
:101030003A4A117702E00421394A117000F00801A0
:10104000082902D1354A117702E00821344A11708B
:1010500000F01001102902D1304A117702E010216E
:101060002F4A117000F02001202902D12B4A11775C
:1010700002E020212A4A117000F04001402902D1EB
:10108000264A117702E04021254A117000F08001C4
:10109000802902D1214A117702E08021204A117073
:1010A00010F0010F03D001211E4A117002E001214E
:1010B0001D4A117010F0010F03D00221194A11705E
:1010C00002E00221184A117010F0010F03D0042130
:1010D000144A117002E00421134A117010F0010F3C
:1010E00003D008210F4A117002E008210E4A117046
:1010F00010F0010F03D010210A4A117002E01021F4
:10110000094A117010F0010F03D02021054A117017
:1011100002E02021044A1170704700000060004086
:10112000206000404C6000405060004040EA0103F5
:101130009B0703D009E008C9121F08C0042AFAD28D
:1011400003E011F8013B00F8013B521EF9D2704751
:101150002DE9FE4F81EA030404F0004421F0004130
:1011600000944FF0000B23F0004350EA010402D03A
:1011700052EA030404D10020014603B0BDE8F08F19
:10118000C3F30A54C1F30A552C44A4F2F334019476
:10119000A0FB0254C1F3130141F48011C3F3130304
:1011A00043F4801301FB024400FB034E840A970AB8
:1011B00044EA815447EA8357A4FB076802958D0AE5
:1011C00005FB07854FEA932C04FB0C542705029D71
:1011D0004FEA065847EA1637B5EB08056EEB070CE1
:1011E000870E920E47EA811742EA8312A7FB02019B
:1011F000B6EB0B0164EB00042B0D43EA0C335E18D5
:1012000044EB1C50DA465146E7FB0201C5F31304D8
:101210004FEA0B3343EA14534FEA0432019C43EA8A
:101220000603A4F10C040294009CCDE900B400F084
:1012300044F8A2E70EB540F2334102910021CDE916
:1012400000110A460B4600F038F803B000BDC1F3A8
:101250000A5210B5C1F3130140F2FF3341F480117B
:101260009A4201DA002010BD40F233439A42A2F2C2
:10127000334203DC524200F003F810BD904010BD31
:10128000202A04DB203A21FA02F00021704721FADB
:1012900002F3D040C2F12002914008431946704742
:1012A00010B5002B08DA401C41F1000192185B4197
:1012B0001A4301D120F0010010BD2DE9F04D9246F6
:1012C0009B4611B1B1FA81F202E0B0FA80F220320D
:1012D000904600F057F804460F4640EA0A0041EAFB
:1012E0000B0153465A46084303D120463946BDE810
:1012F000F08D114653EA010015D0C8F14002504666
:10130000FFF7BEFF05460E4650465946424600F0DE
:1013100039F8084301D0012000E00020054346EAE7
:10132000E0762C4337430A984FEA4453A0EB080079
:101330004FEAD4240A304FF0000244EA47544FEAFF
:10134000D72502D500200146D1E7010510196941D2
:10135000DDE9084500196941BDE8F04DA0E700004E
:10136000064C074D06E0E06840F0010394E80700F2
:1013700098471034AC42F6D3FEF7BEFE801400004E
:10138000A0140000202A04DB203A00FA02F1002019
:1013900070479140C2F1200320FA03F319439040B3
:1013A000704702E008C8121F08C1002AFAD170472E
:1013B0007047002001E001C1121F002AFBD17047D5
:1013C00014000000FFFF0533313BB1238001C02032
:1013D0000E0058C3FD000B371607400C000C000030
:1013E0001000C336101024F02A002F195E465F78D3
:1013F00000000000000000000000000000000000ED
:1014000014000000FFFF0533313BB123B82BEE166B
:10141000720A58C3FDC00B371607400A000C0000C3
:101420001000C336101024F02A002F195E465F7892
:1014300000000000000000000000000000000000AC
:1014400014000000FFFF0533313BB1230A00644163
:1014500001005AC3FD000B371607400C000C0000BA
:101460001000C336101024F02A002F195E465F7852
:10147000000000000000000000000000000000006C
:10148000A01400000000002028000000A2130000AB
:10149000C81400002800002030050000B21300002E
:1014A00000000000000000000096000000000000A6
:1014B0000000000000000000840300000100FFFFA6
:0814C000000000000000000024
:04000005000000F106
:00000001FF
